:020000020000FC
:040000000C946D00EF
:10002C000C94400014E020E03BE1089510E024E043
:10003C003BE1089510E120E03FE0089513E020E05B
:10004C003CE1089511E022E03CE1089511E020E04C
:10005C003EE1089519E020E036E1089511E028E032
:10006C0036E1089510E029E036E1089510E021E032
:10007C003EE108950F930FB70F93442309F4D2DF99
:10008C00423009F4D3DF433009F4D4DF443009F4AF
:10009C00D5DF453009F4D6DF463009F4D7DF4730D9
:1000AC0009F4D8DF483009F4D9DF493009F4DADF34
:1000BC004A3009F4DBDF4B3011F440E001C04395CA
:1000CC0015B928B93BB90F910FBF0F9118950FEFC8
:1000DC000DBF08E00EBF0FEF04B96FEF65B900E07C
:1000EC00009389000FE10093880000E000938000EA
:1000FC000CE00093810000916F00026000936F0090
:04010C007894FFCF15
:00000001FF
